:0100000007F8
:0100010007F7
:0100020007F6
:0100030007F5
:0100040007F4
:0100050007F3
:0100060007F2
:0100070007F1
:0100080007F0
:0100090007EF
:01000A0007EE
:01000B0007ED
:01000C0007EC
:01000D0007EB
:01000E0007EA
:01000F0007E9
:0100100007E8
:0100110007E7
:0100120007E6
:0100130007E5
:0100140007E4
:0100150007E3
:0100160007E2
:0100170007E1
:0100180007E0
:0100190007DF
:01001A0007DE
:01001B0007DD
:01001C0007DC
:01001D0007DB
:01001E0007DA
:01001F0007D9
:0100200007D8
:0100210007D7
:0100220007D6
:0100230007D5
:0100240007D4
:0100250007D3
:0100260007D2
:0100270007D1
:0100280007D0
:0100290007CF
:01002A0007CE
:01002B0007CD
:01002C0007CC
:01002D0007CB
:01002E0007CA
:01002F0007C9
:0100300007C8
:0100310007C7
:0100320007C6
:0100330007C5
:0100340007C4
:0100350007C3
:0100360007C2
:0100370007C1
:0100380007C0
:0100390007BF
:01003A0007BE
:01003B0007BD
:01003C0007BC
:01003D0007BB
:01003E0007BA
:01003F0007B9
:0100400007B8
:0100410007B7
:0100420007B6
:0100430007B5
:0100440007B4
:0100450007B3
:0100460007B2
:0100470007B1
:0100480007B0
:0100490007AF
:01004A0007AE
:01004B0007AD
:01004C0007AC
:01004D0007AB
:01004E0007AA
:01004F0007A9
:0100500007A8
:0100510007A7
:0100520007A6
:0100530007A5
:0100540007A4
:0100550007A3
:0100560007A2
:0100570007A1
:0100580007A0
:01005900079F
:01005A00079E
:01005B00079D
:01005C00079C
:01005D00079B
:01005E00079A
:01005F000799
:010060000798
:010061000797
:010062000796
:010063000795
:010064000794
:010065000793
:010066000792
:010067000791
:010068000790
:01006900078F
:01006A00078E
:01006B00078D
:01006C00078C
:01006D00078B
:01006E00078A
:01006F000789
:010070000788
:010071000787
:010072000786
:010073000785
:010074000784
:010075000783
:010076000782
:010077000781
:010078000780
:01007900077F
:01007A00077E
:01007B00077D
:01007C00077C
:01007D00077B
:01007E00077A
:01007F000779
:010080000778
:010081000777
:010082000776
:010083000775
:010084000774
:010085000773
:010086000772
:010087000771
:010088000770
:01008900076F
:01008A00076E
:01008B00076D
:01008C00076C
:01008D00076B
:01008E00076A
:01008F000769
:010090000768
:010091000767
:010092000766
:010093000765
:010094000764
:010095000763
:010096000762
:010097000761
:010098000760
:01009900075F
:01009A00075E
:01009B00075D
:01009C00075C
:01009D00075B
:01009E00075A
:01009F000759
:0100A0000758
:0100A1000757
:0100A2000756
:0100A3000755
:0100A4000754
:0100A5000753
:0100A6000752
:0100A7000751
:0100A8000750
:0100A900074F
:0100AA00074E
:0100AB00074D
:0100AC00074C
:0100AD00074B
:0100AE00074A
:0100AF000749
:0100B0000748
:0100B1000747
:0100B2000746
:0100B3000745
:0100B4000744
:0100B5000743
:0100B6000742
:0100B7000741
:0100B8000740
:0100B900073F
:0100BA00073E
:0100BB00073D
:0100BC00073C
:0100BD00073B
:0100BE00073A
:0100BF000739
:0100C0000738
:0100C1000737
:0100C2000736
:0100C3000735
:0100C4000734
:0100C5000733
:0100C6000732
:0100C7000731
:0100C8000730
:0100C900072F
:0100CA00072E
:0100CB00072D
:0100CC00072C
:0100CD00072B
:0100CE00072A
:0100CF000729
:0100D0000728
:0100D1000727
:0100D2000726
:0100D3000725
:0100D4000724
:0100D5000723
:0100D6000722
:0100D7000721
:0100D8000720
:0100D900071F
:0100DA00071E
:0100DB00071D
:0100DC00071C
:0100DD00071B
:0100DE00071A
:0100DF000719
:0100E0000718
:0100E1000717
:0100E2000716
:0100E3000715
:0100E4000714
:0100E5000713
:0100E6000712
:0100E7000711
:0100E8000710
:0100E900070F
:0100EA00070E
:0100EB00070D
:0100EC00070C
:0100ED00070B
:0100EE00070A
:0100EF000709
:0100F0000708
:0100F1000707
:0100F2000706
:0100F3000705
:0100F4000704
:0100F5000703
:0100F6000702
:0100F7000701
:0100F8000700
:0100F90007FF
:0100FA0007FE
:0100FB0007FD
:0100FC0007FC
:0100FD0007FB
:0100FE0007FA
:0100FF0007F9
:0101000007F7
:0101010007F6
:0101020007F5
:0101030007F4
:0101040007F3
:0101050007F2
:0101060007F1
:0101070007F0
:0101080007EF
:0101090007EE
:01010A0007ED
:01010B0007EC
:01010C0007EB
:01010D0007EA
:01010E0007E9
:01010F0007E8
:0101100007E7
:0101110007E6
:0101120007E5
:0101130007E4
:0101140007E3
:0101150007E2
:0101160007E1
:0101170007E0
:0101180007DF
:0101190007DE
:01011A0007DD
:01011B0007DC
:01011C0007DB
:01011D0007DA
:01011E0007D9
:01011F0007D8
:0101200007D7
:0101210007D6
:0101220007D5
:0101230007D4
:0101240007D3
:0101250007D2
:0101260007D1
:0101270007D0
:0101280007CF
:0101290007CE
:01012A0007CD
:01012B0007CC
:01012C0007CB
:01012D0007CA
:01012E0007C9
:01012F0007C8
:0101300007C7
:0101310007C6
:0101320007C5
:0101330007C4
:0101340007C3
:0101350007C2
:0101360007C1
:0101370007C0
:0101380007BF
:0101390007BE
:01013A0007BD
:01013B0007BC
:01013C0007BB
:01013D0007BA
:01013E0007B9
:01013F0007B8
:0101400007B7
:0101410007B6
:0101420007B5
:0101430007B4
:0101440007B3
:0101450007B2
:0101460007B1
:0101470007B0
:0101480007AF
:0101490007AE
:01014A0007AD
:01014B0007AC
:01014C0007AB
:01014D0007AA
:01014E0007A9
:01014F0007A8
:0101500007A7
:0101510007A6
:0101520007A5
:0101530007A4
:0101540007A3
:0101550007A2
:0101560007A1
:0101570007A0
:01015800079F
:01015900079E
:01015A00079D
:01015B00079C
:01015C00079B
:01015D00079A
:01015E000799
:01015F000798
:010160000797
:010161000796
:010162000795
:010163000794
:010164000793
:010165000792
:010166000791
:010167000790
:01016800078F
:01016900078E
:01016A00078D
:01016B00078C
:01016C00078B
:01016D00078A
:01016E000789
:01016F000788
:010170000787
:010171000786
:010172000785
:010173000784
:010174000783
:010175000782
:010176000781
:010177000780
:01017800077F
:01017900077E
:01017A00077D
:01017B00077C
:01017C00077B
:01017D00077A
:01017E000779
:01017F000778
:010180000777
:010181000776
:010182000775
:010183000774
:010184000773
:010185000772
:010186000771
:010187000770
:01018800076F
:01018900076E
:01018A00076D
:01018B00076C
:01018C00076B
:01018D00076A
:01018E000769
:01018F000768
:010190000767
:010191000766
:010192000765
:010193000764
:010194000763
:010195000762
:010196000761
:010197000760
:01019800075F
:01019900075E
:01019A00075D
:01019B00075C
:01019C00075B
:01019D00075A
:01019E000759
:01019F000758
:0101A0000757
:0101A1000756
:0101A2000755
:0101A3000754
:0101A4000753
:0101A5000752
:0101A6000751
:0101A7000750
:0101A800074F
:0101A900074E
:0101AA00074D
:0101AB00074C
:0101AC00074B
:0101AD00074A
:0101AE000749
:0101AF000748
:0101B0000747
:0101B1000746
:0101B2000745
:0101B3000744
:0101B4000743
:0101B5000742
:0101B6000741
:0101B7000740
:0101B800073F
:0101B900073E
:0101BA00073D
:0101BB00073C
:0101BC00073B
:0101BD00073A
:0101BE000739
:0101BF000738
:0101C0000737
:0101C1000736
:0101C2000735
:0101C3000734
:0101C4000733
:0101C5000732
:0101C6000731
:0101C7000730
:0101C800072F
:0101C900072E
:0101CA00072D
:0101CB00072C
:0101CC00072B
:0101CD00072A
:0101CE000729
:0101CF000728
:0101D0000727
:0101D1000726
:0101D2000725
:0101D3000724
:0101D4000723
:0101D5000722
:0101D6000721
:0101D7000720
:0101D800071F
:0101D900071E
:0101DA00071D
:0101DB00071C
:0101DC00071B
:0101DD00071A
:0101DE000719
:0101DF000718
:0101E0000717
:0101E1000716
:0101E2000715
:0101E3000714
:0101E4000713
:0101E5000712
:0101E6000711
:0101E7000710
:0101E800070F
:0101E900070E
:0101EA00070D
:0101EB00070C
:0101EC00070B
:0101ED00070A
:0101EE000709
:0101EF000708
:0101F0000707
:0101F1000706
:0101F2000705
:0101F3000704
:0101F4000703
:0101F5000702
:0101F6000701
:0101F7000700
:0101F80007FF
:0101F90007FE
:0101FA0007FD
:0101FB0007FC
:0101FC0007FB
:0101FD0007FA
:0101FE0007F9
:0101FF0007F8
:0102000007F6
:0102010007F5
:0102020007F4
:0102030007F3
:0102040007F2
:0102050007F1
:0102060007F0
:0102070007EF
:0102080007EE
:0102090007ED
:01020A0007EC
:01020B0007EB
:01020C0007EA
:01020D0007E9
:01020E0007E8
:01020F0007E7
:0102100007E6
:0102110007E5
:0102120007E4
:0102130007E3
:0102140007E2
:0102150007E1
:0102160007E0
:0102170007DF
:0102180007DE
:0102190007DD
:01021A0007DC
:01021B0007DB
:01021C0007DA
:01021D0007D9
:01021E0007D8
:01021F0007D7
:0102200007D6
:0102210007D5
:0102220007D4
:0102230007D3
:0102240007D2
:0102250007D1
:0102260007D0
:0102270007CF
:0102280007CE
:0102290007CD
:01022A0007CC
:01022B0007CB
:01022C0007CA
:01022D0007C9
:01022E0007C8
:01022F0007C7
:0102300007C6
:0102310007C5
:0102320007C4
:0102330007C3
:0102340007C2
:0102350007C1
:0102360007C0
:0102370007BF
:0102380007BE
:0102390007BD
:01023A0007BC
:01023B0007BB
:01023C0007BA
:01023D0007B9
:01023E0007B8
:01023F0007B7
:0102400007B6
:0102410007B5
:0102420007B4
:0102430007B3
:0102440007B2
:0102450007B1
:0102460007B0
:0102470007AF
:0102480007AE
:0102490007AD
:01024A0007AC
:01024B0007AB
:01024C0007AA
:01024D0007A9
:01024E0007A8
:01024F0007A7
:0102500007A6
:0102510007A5
:0102520007A4
:0102530007A3
:0102540007A2
:0102550007A1
:0102560007A0
:01025700079F
:01025800079E
:01025900079D
:01025A00079C
:01025B00079B
:01025C00079A
:01025D000799
:01025E000798
:01025F000797
:010260000796
:010261000795
:010262000794
:010263000793
:010264000792
:010265000791
:010266000790
:01026700078F
:01026800078E
:01026900078D
:01026A00078C
:01026B00078B
:01026C00078A
:01026D000789
:01026E000788
:01026F000787
:010270000786
:010271000785
:010272000784
:010273000783
:010274000782
:010275000781
:010276000780
:01027700077F
:01027800077E
:01027900077D
:01027A00077C
:01027B00077B
:01027C00077A
:01027D000779
:01027E000778
:01027F000777
:010280000776
:010281000775
:010282000774
:010283000773
:010284000772
:010285000771
:010286000770
:01028700076F
:01028800076E
:01028900076D
:01028A00076C
:01028B00076B
:01028C00076A
:01028D000769
:01028E000768
:01028F000767
:010290000766
:010291000765
:010292000764
:010293000763
:010294000762
:010295000761
:010296000760
:01029700075F
:01029800075E
:01029900075D
:01029A00075C
:01029B00075B
:01029C00075A
:01029D000759
:01029E000758
:01029F000757
:0102A0000756
:0102A1000755
:0102A2000754
:0102A3000753
:0102A4000752
:0102A5000751
:0102A6000750
:0102A700074F
:0102A800074E
:0102A900074D
:0102AA00074C
:0102AB00074B
:0102AC00074A
:0102AD000749
:0102AE000748
:0102AF000747
:0102B0000746
:0102B1000745
:0102B2000744
:0102B3000743
:0102B4000742
:0102B5000741
:0102B6000740
:0102B700073F
:0102B800073E
:0102B900073D
:0102BA00073C
:0102BB00073B
:0102BC00073A
:0102BD000739
:0102BE000738
:0102BF000737
:0102C0000736
:0102C1000735
:0102C2000734
:0102C3000733
:0102C4000732
:0102C5000731
:0102C6000730
:0102C700072F
:0102C800072E
:0102C900072D
:0102CA00072C
:0102CB00072B
:0102CC00072A
:0102CD000729
:0102CE000728
:0102CF000727
:0102D0000726
:0102D1000725
:0102D2000724
:0102D3000723
:0102D4000722
:0102D5000721
:0102D6000720
:0102D700071F
:0102D800071E
:0102D900071D
:0102DA00071C
:0102DB00071B
:0102DC00071A
:0102DD000719
:0102DE000718
:0102DF000717
:0102E0000716
:0102E1000715
:0102E2000714
:0102E3000713
:0102E4000712
:0102E5000711
:0102E6000710
:0102E700070F
:0102E800070E
:0102E900070D
:0102EA00070C
:0102EB00070B
:0102EC00070A
:0102ED000709
:0102EE000708
:0102EF000707
:0102F0000706
:0102F1000705
:0102F2000704
:0102F3000703
:0102F4000702
:0102F5000701
:0102F6000700
:0102F70007FF
:0102F80007FE
:0102F90007FD
:0102FA0007FC
:0102FB0007FB
:0102FC0007FA
:0102FD0007F9
:0102FE0007F8
:0102FF0007F7
:0103000007F5
:0103010007F4
:0103020007F3
:0103030007F2
:0103040007F1
:0103050007F0
:0103060007EF
:0103070007EE
:0103080007ED
:0103090007EC
:01030A0007EB
:01030B0007EA
:01030C0007E9
:01030D0007E8
:01030E0007E7
:01030F0007E6
:0103100007E5
:0103110007E4
:0103120007E3
:0103130007E2
:0103140007E1
:0103150007E0
:0103160007DF
:0103170007DE
:0103180007DD
:0103190007DC
:01031A0007DB
:01031B0007DA
:01031C0007D9
:01031D0007D8
:01031E0007D7
:01031F0007D6
:0103200007D5
:0103210007D4
:0103220007D3
:0103230007D2
:0103240007D1
:0103250007D0
:0103260007CF
:0103270007CE
:0103280007CD
:0103290007CC
:01032A0007CB
:01032B0007CA
:01032C0007C9
:01032D0007C8
:01032E0007C7
:01032F0007C6
:0103300007C5
:0103310007C4
:0103320007C3
:0103330007C2
:0103340007C1
:0103350007C0
:0103360007BF
:0103370007BE
:0103380007BD
:0103390007BC
:01033A0007BB
:01033B0007BA
:01033C0007B9
:01033D0007B8
:01033E0007B7
:01033F0007B6
:0103400007B5
:0103410007B4
:0103420007B3
:0103430007B2
:0103440007B1
:0103450007B0
:0103460007AF
:0103470007AE
:0103480007AD
:0103490007AC
:01034A0007AB
:01034B0007AA
:01034C0007A9
:01034D0007A8
:01034E0007A7
:01034F0007A6
:0103500007A5
:0103510007A4
:0103520007A3
:0103530007A2
:0103540007A1
:0103550007A0
:01035600079F
:01035700079E
:01035800079D
:01035900079C
:01035A00079B
:01035B00079A
:01035C000799
:01035D000798
:01035E000797
:01035F000796
:010360000795
:010361000794
:010362000793
:010363000792
:010364000791
:010365000790
:01036600078F
:01036700078E
:01036800078D
:01036900078C
:01036A00078B
:01036B00078A
:01036C000789
:01036D000788
:01036E000787
:01036F000786
:010370000785
:010371000784
:010372000783
:010373000782
:010374000781
:010375000780
:01037600077F
:01037700077E
:01037800077D
:01037900077C
:01037A00077B
:01037B00077A
:01037C000779
:01037D000778
:01037E000777
:01037F000776
:010380000775
:010381000774
:010382000773
:010383000772
:010384000771
:010385000770
:01038600076F
:01038700076E
:01038800076D
:01038900076C
:01038A00076B
:01038B00076A
:01038C000769
:01038D000768
:01038E000767
:01038F000766
:010390000765
:010391000764
:010392000763
:010393000762
:010394000761
:010395000760
:01039600075F
:01039700075E
:01039800075D
:01039900075C
:01039A00075B
:01039B00075A
:01039C000759
:01039D000758
:01039E000757
:01039F000756
:0103A0000755
:0103A1000754
:0103A2000753
:0103A3000752
:0103A4000751
:0103A5000750
:0103A600074F
:0103A700074E
:0103A800074D
:0103A900074C
:0103AA00074B
:0103AB00074A
:0103AC000749
:0103AD000748
:0103AE000747
:0103AF000746
:0103B0000745
:0103B1000744
:0103B2000743
:0103B3000742
:0103B4000741
:0103B5000740
:0103B600073F
:0103B700073E
:0103B800073D
:0103B900073C
:0103BA00073B
:0103BB00073A
:0103BC000739
:0103BD000738
:0103BE000737
:0103BF000736
:0103C0000735
:0103C1000734
:0103C2000733
:0103C3000732
:0103C4000731
:0103C5000730
:0103C600072F
:0103C700072E
:0103C800072D
:0103C900072C
:0103CA00072B
:0103CB00072A
:0103CC000729
:0103CD000728
:0103CE000727
:0103CF000726
:0103D0000725
:0103D1000724
:0103D2000723
:0103D3000722
:0103D4000721
:0103D5000720
:0103D600071F
:0103D700071E
:0103D800071D
:0103D900071C
:0103DA00071B
:0103DB00071A
:0103DC000719
:0103DD000718
:0103DE000717
:0103DF000716
:0103E0000715
:0103E1000714
:0103E2000713
:0103E3000712
:0103E4000711
:0103E5000710
:0103E600070F
:0103E700070E
:0103E800070D
:0103E900070C
:0103EA00070B
:0103EB00070A
:0103EC000709
:0103ED000708
:0103EE000707
:0103EF000706
:0103F0000705
:0103F1000704
:0103F2000703
:0103F3000702
:0103F4000701
:0103F5000700
:0103F60007FF
:0103F70007FE
:0103F80007FD
:0103F90007FC
:0103FA0007FB
:0103FB0007FA
:0103FC0007F9
:0103FD0007F8
:0103FE0007F7
:0103FF0007F6
:0104000007F4
:0104010007F3
:0104020007F2
:0104030007F1
:0104040007F0
:0104050007EF
:0104060007EE
:0104070007ED
:0104080007EC
:0104090007EB
:01040A0007EA
:01040B0007E9
:01040C0007E8
:01040D0007E7
:01040E0007E6
:01040F0007E5
:0104100007E4
:0104110007E3
:0104120007E2
:0104130007E1
:0104140007E0
:0104150007DF
:0104160007DE
:0104170007DD
:0104180007DC
:0104190007DB
:01041A0007DA
:01041B0007D9
:01041C0007D8
:01041D0007D7
:01041E0007D6
:01041F0007D5
:0104200007D4
:0104210007D3
:0104220007D2
:0104230007D1
:0104240007D0
:0104250007CF
:0104260007CE
:0104270007CD
:0104280007CC
:0104290007CB
:01042A0007CA
:01042B0007C9
:01042C0007C8
:01042D0007C7
:01042E0007C6
:01042F0007C5
:0104300007C4
:0104310007C3
:0104320007C2
:0104330007C1
:0104340007C0
:0104350007BF
:0104360007BE
:0104370007BD
:0104380007BC
:0104390007BB
:01043A0007BA
:01043B0007B9
:01043C0007B8
:01043D0007B7
:01043E0007B6
:01043F0007B5
:0104400007B4
:0104410007B3
:0104420007B2
:0104430007B1
:0104440007B0
:0104450007AF
:0104460007AE
:0104470007AD
:0104480007AC
:0104490007AB
:01044A0007AA
:01044B0007A9
:01044C0007A8
:01044D0007A7
:01044E0007A6
:01044F0007A5
:0104500007A4
:0104510007A3
:0104520007A2
:0104530007A1
:0104540007A0
:01045500079F
:01045600079E
:01045700079D
:01045800079C
:01045900079B
:01045A00079A
:01045B000799
:01045C000798
:01045D000797
:01045E000796
:01045F000795
:010460000794
:010461000793
:010462000792
:010463000791
:010464000790
:01046500078F
:01046600078E
:01046700078D
:01046800078C
:01046900078B
:01046A00078A
:01046B000789
:01046C000788
:01046D000787
:01046E000786
:01046F000785
:010470000784
:010471000783
:010472000782
:010473000781
:010474000780
:01047500077F
:01047600077E
:01047700077D
:01047800077C
:01047900077B
:01047A00077A
:01047B000779
:01047C000778
:01047D000777
:01047E000776
:01047F000775
:010480000774
:010481000773
:010482000772
:010483000771
:010484000770
:01048500076F
:01048600076E
:01048700076D
:01048800076C
:01048900076B
:01048A00076A
:01048B000769
:01048C000768
:01048D000767
:01048E000766
:01048F000765
:010490000764
:010491000763
:010492000762
:010493000761
:010494000760
:01049500075F
:01049600075E
:01049700075D
:01049800075C
:01049900075B
:01049A00075A
:01049B000759
:01049C000758
:01049D000757
:01049E000756
:01049F000755
:0104A0000754
:0104A1000753
:0104A2000752
:0104A3000751
:0104A4000750
:0104A500074F
:0104A600074E
:0104A700074D
:0104A800074C
:0104A900074B
:0104AA00074A
:0104AB000749
:0104AC000748
:0104AD000747
:0104AE000746
:0104AF000745
:0104B0000744
:0104B1000743
:0104B2000742
:0104B3000741
:0104B4000740
:0104B500073F
:0104B600073E
:0104B700073D
:0104B800073C
:0104B900073B
:0104BA00073A
:0104BB000739
:0104BC000738
:0104BD000737
:0104BE000736
:0104BF000735
:0104C0000734
:0104C1000733
:0104C2000732
:0104C3000731
:0104C4000730
:0104C500072F
:0104C600072E
:0104C700072D
:0104C800072C
:0104C900072B
:0104CA00072A
:0104CB000729
:0104CC000728
:0104CD000727
:0104CE000726
:0104CF000725
:0104D0000724
:0104D1000723
:0104D2000722
:0104D3000721
:0104D4000720
:0104D500071F
:0104D600071E
:0104D700071D
:0104D800071C
:0104D900071B
:0104DA00071A
:0104DB000719
:0104DC000718
:0104DD000717
:0104DE000716
:0104DF000715
:0104E0000714
:0104E1000713
:0104E2000712
:0104E3000711
:0104E4000710
:0104E500070F
:0104E600070E
:0104E700070D
:0104E800070C
:0104E900070B
:0104EA00070A
:0104EB000709
:0104EC000708
:0104ED000707
:0104EE000706
:0104EF000705
:0104F0000704
:0104F1000703
:0104F2000702
:0104F3000701
:0104F4000700
:0104F50007FF
:0104F60007FE
:0104F70007FD
:0104F80007FC
:0104F90007FB
:0104FA0007FA
:0104FB0007F9
:0104FC0007F8
:0104FD0007F7
:0104FE0007F6
:0104FF0007F5
:0105000007F3
:0105010007F2
:0105020007F1
:0105030007F0
:0105040007EF
:0105050007EE
:0105060007ED
:0105070007EC
:0105080007EB
:0105090007EA
:01050A0007E9
:01050B0007E8
:01050C0007E7
:01050D0007E6
:01050E0007E5
:01050F0007E4
:0105100007E3
:0105110007E2
:0105120007E1
:0105130007E0
:0105140007DF
:0105150007DE
:0105160007DD
:0105170007DC
:0105180007DB
:0105190007DA
:01051A0007D9
:01051B0007D8
:01051C0007D7
:01051D0007D6
:01051E0007D5
:01051F0007D4
:0105200007D3
:0105210007D2
:0105220007D1
:0105230007D0
:0105240007CF
:0105250007CE
:0105260007CD
:0105270007CC
:0105280007CB
:0105290007CA
:01052A0007C9
:01052B0007C8
:01052C0007C7
:01052D0007C6
:01052E0007C5
:01052F0007C4
:0105300007C3
:0105310007C2
:0105320007C1
:0105330007C0
:0105340007BF
:0105350007BE
:0105360007BD
:0105370007BC
:0105380007BB
:0105390007BA
:01053A0007B9
:01053B0007B8
:01053C0007B7
:01053D0007B6
:01053E0007B5
:01053F0007B4
:0105400007B3
:0105410007B2
:0105420007B1
:0105430007B0
:0105440007AF
:0105450007AE
:0105460007AD
:0105470007AC
:0105480007AB
:0105490007AA
:01054A0007A9
:01054B0007A8
:01054C0007A7
:01054D0007A6
:01054E0007A5
:01054F0007A4
:0105500007A3
:0105510007A2
:0105520007A1
:0105530007A0
:01055400079F
:01055500079E
:01055600079D
:01055700079C
:01055800079B
:01055900079A
:01055A000799
:01055B000798
:01055C000797
:01055D000796
:01055E000795
:01055F000794
:010560000793
:010561000792
:010562000791
:010563000790
:01056400078F
:01056500078E
:01056600078D
:01056700078C
:01056800078B
:01056900078A
:01056A000789
:01056B000788
:01056C000787
:01056D000786
:01056E000785
:01056F000784
:010570000783
:010571000782
:010572000781
:010573000780
:01057400077F
:01057500077E
:01057600077D
:01057700077C
:01057800077B
:01057900077A
:01057A000779
:01057B000778
:01057C000777
:01057D000776
:01057E000775
:01057F000774
:010580000773
:010581000772
:010582000771
:010583000770
:01058400076F
:01058500076E
:01058600076D
:01058700076C
:01058800076B
:01058900076A
:01058A000769
:01058B000768
:01058C000767
:01058D000766
:01058E000765
:01058F000764
:010590000763
:010591000762
:010592000761
:010593000760
:01059400075F
:01059500075E
:01059600075D
:01059700075C
:01059800075B
:01059900075A
:01059A000759
:01059B000758
:01059C000757
:01059D000756
:01059E000755
:01059F000754
:0105A0000753
:0105A1000752
:0105A2000751
:0105A3000750
:0105A400074F
:0105A500074E
:0105A600074D
:0105A700074C
:0105A800074B
:0105A900074A
:0105AA000749
:0105AB000748
:0105AC000747
:0105AD000746
:0105AE000745
:0105AF000744
:0105B0000743
:0105B1000742
:0105B2000741
:0105B3000740
:0105B400073F
:0105B500073E
:0105B600073D
:0105B700073C
:0105B800073B
:0105B900073A
:0105BA000739
:0105BB000738
:0105BC000737
:0105BD000736
:0105BE000735
:0105BF000734
:0105C0000733
:0105C1000732
:0105C2000731
:0105C3000730
:0105C400072F
:0105C500072E
:0105C600072D
:0105C700072C
:0105C800072B
:0105C900072A
:0105CA000729
:0105CB000728
:0105CC000727
:0105CD000726
:0105CE000725
:0105CF000724
:0105D0000723
:0105D1000722
:0105D2000721
:0105D3000720
:0105D400071F
:0105D500071E
:0105D600071D
:0105D700071C
:0105D800071B
:0105D900071A
:0105DA000719
:0105DB000718
:0105DC000717
:0105DD000716
:0105DE000715
:0105DF000714
:0105E0000713
:0105E1000712
:0105E2000711
:0105E3000710
:0105E400070F
:0105E500070E
:0105E600070D
:0105E700070C
:0105E800070B
:0105E900070A
:0105EA000709
:0105EB000708
:0105EC000707
:0105ED000706
:0105EE000705
:0105EF000704
:0105F0000703
:0105F1000702
:0105F2000701
:0105F3000700
:0105F40007FF
:0105F50007FE
:0105F60007FD
:0105F70007FC
:0105F80007FB
:0105F90007FA
:0105FA0007F9
:0105FB0007F8
:0105FC0007F7
:0105FD0007F6
:0105FE0007F5
:0105FF0007F4
:0106000007F2
:0106010007F1
:0106020007F0
:0106030007EF
:0106040007EE
:0106050007ED
:0106060007EC
:0106070007EB
:0106080007EA
:0106090007E9
:01060A0007E8
:01060B0007E7
:01060C0007E6
:01060D0007E5
:01060E0007E4
:01060F0007E3
:0106100007E2
:0106110007E1
:0106120007E0
:0106130007DF
:0106140007DE
:0106150007DD
:0106160007DC
:0106170007DB
:0106180007DA
:0106190007D9
:01061A0007D8
:01061B0007D7
:01061C0007D6
:01061D0007D5
:01061E0007D4
:01061F0007D3
:0106200007D2
:0106210007D1
:0106220007D0
:0106230007CF
:0106240007CE
:0106250007CD
:0106260007CC
:0106270007CB
:0106280007CA
:0106290007C9
:01062A0007C8
:01062B0007C7
:01062C0007C6
:01062D0007C5
:01062E0007C4
:01062F0007C3
:0106300007C2
:0106310007C1
:0106320007C0
:0106330007BF
:0106340007BE
:0106350007BD
:0106360007BC
:0106370007BB
:0106380007BA
:0106390007B9
:01063A0007B8
:01063B0007B7
:01063C0007B6
:01063D0007B5
:01063E0007B4
:01063F0007B3
:0106400007B2
:0106410007B1
:0106420007B0
:0106430007AF
:0106440007AE
:0106450007AD
:0106460007AC
:0106470007AB
:0106480007AA
:0106490007A9
:01064A0007A8
:01064B0007A7
:01064C0007A6
:01064D0007A5
:01064E0007A4
:01064F0007A3
:0106500007A2
:0106510007A1
:0106520007A0
:01065300079F
:01065400079E
:01065500079D
:01065600079C
:01065700079B
:01065800079A
:010659000799
:01065A000798
:01065B000797
:01065C000796
:01065D000795
:01065E000794
:01065F000793
:010660000792
:010661000791
:010662000790
:01066300078F
:01066400078E
:01066500078D
:01066600078C
:01066700078B
:01066800078A
:010669000789
:01066A000788
:01066B000787
:01066C000786
:01066D000785
:01066E000784
:01066F000783
:010670000782
:010671000781
:010672000780
:01067300077F
:01067400077E
:01067500077D
:01067600077C
:01067700077B
:01067800077A
:010679000779
:01067A000778
:01067B000777
:01067C000776
:01067D000775
:01067E000774
:01067F000773
:010680000772
:010681000771
:010682000770
:01068300076F
:01068400076E
:01068500076D
:01068600076C
:01068700076B
:01068800076A
:010689000769
:01068A000768
:01068B000767
:01068C000766
:01068D000765
:01068E000764
:01068F000763
:010690000762
:010691000761
:010692000760
:01069300075F
:01069400075E
:01069500075D
:01069600075C
:01069700075B
:01069800075A
:010699000759
:01069A000758
:01069B000757
:01069C000756
:01069D000755
:01069E000754
:01069F000753
:0106A0000752
:0106A1000751
:0106A2000750
:0106A300074F
:0106A400074E
:0106A500074D
:0106A600074C
:0106A700074B
:0106A800074A
:0106A9000749
:0106AA000748
:0106AB000747
:0106AC000746
:0106AD000745
:0106AE000744
:0106AF000743
:0106B0000742
:0106B1000741
:0106B2000740
:0106B300073F
:0106B400073E
:0106B500073D
:0106B600073C
:0106B700073B
:0106B800073A
:0106B9000739
:0106BA000738
:0106BB000737
:0106BC000736
:0106BD000735
:0106BE000734
:0106BF000733
:0106C0000732
:0106C1000731
:0106C2000730
:0106C300072F
:0106C400072E
:0106C500072D
:0106C600072C
:0106C700072B
:0106C800072A
:0106C9000729
:0106CA000728
:0106CB000727
:0106CC000726
:0106CD000725
:0106CE000724
:0106CF000723
:0106D0000722
:0106D1000721
:0106D2000720
:0106D300071F
:0106D400071E
:0106D500071D
:0106D600071C
:0106D700071B
:0106D800071A
:0106D9000719
:0106DA000718
:0106DB000717
:0106DC000716
:0106DD000715
:0106DE000714
:0106DF000713
:0106E0000712
:0106E1000711
:0106E2000710
:0106E300070F
:0106E400070E
:0106E500070D
:0106E600070C
:0106E700070B
:0106E800070A
:0106E9000709
:0106EA000708
:0106EB000707
:0106EC000706
:0106ED000705
:0106EE000704
:0106EF000703
:0106F0000702
:0106F1000701
:0106F2000700
:0106F30007FF
:0106F40007FE
:0106F50007FD
:0106F60007FC
:0106F70007FB
:0106F80007FA
:0106F90007F9
:0106FA0007F8
:0106FB0007F7
:0106FC0007F6
:0106FD0007F5
:0106FE0007F4
:0106FF0007F3
:0107000007F1
:0107010007F0
:0107020007EF
:0107030007EE
:0107040007ED
:0107050007EC
:0107060007EB
:0107070007EA
:0107080007E9
:0107090007E8
:01070A0007E7
:01070B0007E6
:01070C0007E5
:01070D0007E4
:01070E0007E3
:01070F0007E2
:0107100007E1
:0107110007E0
:0107120007DF
:0107130007DE
:0107140007DD
:0107150007DC
:0107160007DB
:0107170007DA
:0107180007D9
:0107190007D8
:01071A0007D7
:01071B0007D6
:01071C0007D5
:01071D0007D4
:01071E0007D3
:01071F0007D2
:0107200007D1
:0107210007D0
:0107220007CF
:0107230007CE
:0107240007CD
:0107250007CC
:0107260007CB
:0107270007CA
:0107280007C9
:0107290007C8
:01072A0007C7
:01072B0007C6
:01072C0007C5
:01072D0007C4
:01072E0007C3
:01072F0007C2
:0107300007C1
:0107310007C0
:0107320007BF
:0107330007BE
:0107340007BD
:0107350007BC
:0107360007BB
:0107370007BA
:0107380007B9
:0107390007B8
:01073A0007B7
:01073B0007B6
:01073C0007B5
:01073D0007B4
:01073E0007B3
:01073F0007B2
:0107400007B1
:0107410007B0
:0107420007AF
:0107430007AE
:0107440007AD
:0107450007AC
:0107460007AB
:0107470007AA
:0107480007A9
:0107490007A8
:01074A0007A7
:01074B0007A6
:01074C0007A5
:01074D0007A4
:01074E0007A3
:01074F0007A2
:0107500007A1
:0107510007A0
:01075200079F
:01075300079E
:01075400079D
:01075500079C
:01075600079B
:01075700079A
:010758000799
:010759000798
:01075A000797
:01075B000796
:01075C000795
:01075D000794
:01075E000793
:01075F000792
:010760000791
:010761000790
:01076200078F
:01076300078E
:01076400078D
:01076500078C
:01076600078B
:01076700078A
:010768000789
:010769000788
:01076A000787
:01076B000786
:01076C000785
:01076D000784
:01076E000783
:01076F000782
:010770000781
:010771000780
:01077200077F
:01077300077E
:01077400077D
:01077500077C
:01077600077B
:01077700077A
:010778000779
:010779000778
:01077A000777
:01077B000776
:01077C000775
:01077D000774
:01077E000773
:01077F000772
:010780000771
:010781000770
:01078200076F
:01078300076E
:01078400076D
:01078500076C
:01078600076B
:01078700076A
:010788000769
:010789000768
:01078A000767
:01078B000766
:01078C000765
:01078D000764
:01078E000763
:01078F000762
:010790000761
:010791000760
:01079200075F
:01079300075E
:01079400075D
:01079500075C
:01079600075B
:01079700075A
:010798000759
:010799000758
:01079A000757
:01079B000756
:01079C000755
:01079D000754
:01079E000753
:01079F000752
:0107A0000751
:0107A1000750
:0107A200074F
:0107A300074E
:0107A400074D
:0107A500074C
:0107A600074B
:0107A700074A
:0107A8000749
:0107A9000748
:0107AA000747
:0107AB000746
:0107AC000745
:0107AD000744
:0107AE000743
:0107AF000742
:0107B0000741
:0107B1000740
:0107B200073F
:0107B300073E
:0107B400073D
:0107B500073C
:0107B600073B
:0107B700073A
:0107B8000739
:0107B9000738
:0107BA000737
:0107BB000736
:0107BC000735
:0107BD000734
:0107BE000733
:0107BF000732
:0107C0000731
:0107C1000730
:0107C200072F
:0107C300072E
:0107C400072D
:0107C500072C
:0107C600072B
:0107C700072A
:0107C8000729
:0107C9000728
:0107CA000727
:0107CB000726
:0107CC000725
:0107CD000724
:0107CE000723
:0107CF000722
:0107D0000721
:0107D1000720
:0107D200071F
:0107D300071E
:0107D400071D
:0107D500071C
:0107D600071B
:0107D700071A
:0107D8000719
:0107D9000718
:0107DA000717
:0107DB000716
:0107DC000715
:0107DD000714
:0107DE000713
:0107DF000712
:0107E0000711
:0107E1000710
:0107E200070F
:0107E300070E
:0107E400070D
:0107E500070C
:0107E600070B
:0107E700070A
:0107E8000709
:0107E9000708
:0107EA000707
:0107EB000706
:0107EC000705
:0107ED000704
:0107EE000703
:0107EF000702
:0107F0000701
:0107F1000700
:0107F20007FF
:0107F30007FE
:0107F40007FD
:0107F50007FC
:0107F60007FB
:0107F70007FA
:0107F80007F9
:0107F90007F8
:0107FA0007F7
:0107FB0007F6
:0107FC0007F5
:0107FD0007F4
:0107FE0007F3
:0107FF0007F2
:0108000007F0
:0108010007EF
:0108020007EE
:0108030007ED
:0108040007EC
:0108050007EB
:0108060007EA
:0108070007E9
:0108080007E8
:0108090007E7
:01080A0007E6
:01080B0007E5
:01080C0007E4
:01080D0007E3
:01080E0007E2
:01080F0007E1
:0108100007E0
:0108110007DF
:0108120007DE
:0108130007DD
:0108140007DC
:0108150007DB
:0108160007DA
:0108170007D9
:0108180007D8
:0108190007D7
:01081A0007D6
:01081B0007D5
:01081C0007D4
:01081D0007D3
:01081E0007D2
:01081F0007D1
:0108200007D0
:0108210007CF
:0108220007CE
:0108230007CD
:0108240007CC
:0108250007CB
:0108260007CA
:0108270007C9
:0108280007C8
:0108290007C7
:01082A0007C6
:01082B0007C5
:01082C0007C4
:01082D0007C3
:01082E0007C2
:01082F0007C1
:0108300007C0
:0108310007BF
:0108320007BE
:0108330007BD
:0108340007BC
:0108350007BB
:0108360007BA
:0108370007B9
:0108380007B8
:0108390007B7
:01083A0007B6
:01083B0007B5
:01083C0007B4
:01083D0007B3
:01083E0007B2
:01083F0007B1
:0108400007B0
:0108410007AF
:0108420007AE
:0108430007AD
:0108440007AC
:0108450007AB
:0108460007AA
:0108470007A9
:0108480007A8
:0108490007A7
:01084A0007A6
:01084B0007A5
:01084C0007A4
:01084D0007A3
:01084E0007A2
:01084F0007A1
:0108500007A0
:01085100079F
:01085200079E
:01085300079D
:01085400079C
:01085500079B
:01085600079A
:010857000799
:010858000798
:010859000797
:01085A000796
:01085B000795
:01085C000794
:01085D000793
:01085E000792
:01085F000791
:010860000790
:01086100078F
:01086200078E
:01086300078D
:01086400078C
:01086500078B
:01086600078A
:010867000789
:010868000788
:010869000787
:01086A000786
:01086B000785
:01086C000784
:01086D000783
:01086E000782
:01086F000781
:010870000780
:01087100077F
:01087200077E
:01087300077D
:01087400077C
:01087500077B
:01087600077A
:010877000779
:010878000778
:010879000777
:01087A000776
:01087B000775
:01087C000774
:01087D000773
:01087E000772
:01087F000771
:010880000770
:01088100076F
:01088200076E
:01088300076D
:01088400076C
:01088500076B
:01088600076A
:010887000769
:010888000768
:010889000767
:01088A000766
:01088B000765
:01088C000764
:01088D000763
:01088E000762
:01088F000761
:010890000760
:01089100075F
:01089200075E
:01089300075D
:01089400075C
:01089500075B
:01089600075A
:010897000759
:010898000758
:010899000757
:01089A000756
:01089B000755
:01089C000754
:01089D000753
:01089E000752
:01089F000751
:0108A0000750
:0108A100074F
:0108A200074E
:0108A300074D
:0108A400074C
:0108A500074B
:0108A600074A
:0108A7000749
:0108A8000748
:0108A9000747
:0108AA000746
:0108AB000745
:0108AC000744
:0108AD000743
:0108AE000742
:0108AF000741
:0108B0000740
:0108B100073F
:0108B200073E
:0108B300073D
:0108B400073C
:0108B500073B
:0108B600073A
:0108B7000739
:0108B8000738
:0108B9000737
:0108BA000736
:0108BB000735
:0108BC000734
:0108BD000733
:0108BE000732
:0108BF000731
:0108C0000730
:0108C100072F
:0108C200072E
:0108C300072D
:0108C400072C
:0108C500072B
:0108C600072A
:0108C7000729
:0108C8000728
:0108C9000727
:0108CA000726
:0108CB000725
:0108CC000724
:0108CD000723
:0108CE000722
:0108CF000721
:0108D0000720
:0108D100071F
:0108D200071E
:0108D300071D
:0108D400071C
:0108D500071B
:0108D600071A
:0108D7000719
:0108D8000718
:0108D9000717
:0108DA000716
:0108DB000715
:0108DC000714
:0108DD000713
:0108DE000712
:0108DF000711
:0108E0000710
:0108E100070F
:0108E200070E
:0108E300070D
:0108E400070C
:0108E500070B
:0108E600070A
:0108E7000709
:0108E8000708
:0108E9000707
:0108EA000706
:0108EB000705
:0108EC000704
:0108ED000703
:0108EE000702
:0108EF000701
:0108F0000700
:0108F10007FF
:0108F20007FE
:0108F30007FD
:0108F40007FC
:0108F50007FB
:0108F60007FA
:0108F70007F9
:0108F80007F8
:0108F90007F7
:0108FA0007F6
:0108FB0007F5
:0108FC0007F4
:0108FD0007F3
:0108FE0007F2
:0108FF0007F1
:0109000007EF
:0109010007EE
:0109020007ED
:0109030007EC
:0109040007EB
:0109050007EA
:0109060007E9
:0109070007E8
:0109080007E7
:0109090007E6
:01090A0007E5
:01090B0007E4
:01090C0007E3
:01090D0007E2
:01090E0007E1
:01090F0007E0
:0109100007DF
:0109110007DE
:0109120007DD
:0109130007DC
:0109140007DB
:0109150007DA
:0109160007D9
:0109170007D8
:0109180007D7
:0109190007D6
:01091A0007D5
:01091B0007D4
:01091C0007D3
:01091D0007D2
:01091E0007D1
:01091F0007D0
:0109200007CF
:0109210007CE
:0109220007CD
:0109230007CC
:0109240007CB
:0109250007CA
:0109260007C9
:0109270007C8
:0109280007C7
:0109290007C6
:01092A0007C5
:01092B0007C4
:01092C0007C3
:01092D0007C2
:01092E0007C1
:01092F0007C0
:0109300007BF
:0109310007BE
:0109320007BD
:0109330007BC
:0109340007BB
:0109350007BA
:0109360007B9
:0109370007B8
:0109380007B7
:0109390007B6
:01093A0007B5
:01093B0007B4
:01093C0007B3
:01093D0007B2
:01093E0007B1
:01093F0007B0
:0109400007AF
:0109410007AE
:0109420007AD
:0109430007AC
:0109440007AB
:0109450007AA
:0109460007A9
:0109470007A8
:0109480007A7
:0109490007A6
:01094A0007A5
:01094B0007A4
:01094C0007A3
:01094D0007A2
:01094E0007A1
:01094F0007A0
:01095000079F
:01095100079E
:01095200079D
:01095300079C
:01095400079B
:01095500079A
:010956000799
:010957000798
:010958000797
:010959000796
:01095A000795
:01095B000794
:01095C000793
:01095D000792
:01095E000791
:01095F000790
:01096000078F
:01096100078E
:01096200078D
:01096300078C
:01096400078B
:01096500078A
:010966000789
:010967000788
:010968000787
:010969000786
:01096A000785
:01096B000784
:01096C000783
:01096D000782
:01096E000781
:01096F000780
:01097000077F
:01097100077E
:01097200077D
:01097300077C
:01097400077B
:01097500077A
:010976000779
:010977000778
:010978000777
:010979000776
:01097A000775
:01097B000774
:01097C000773
:01097D000772
:01097E000771
:01097F000770
:01098000076F
:01098100076E
:01098200076D
:01098300076C
:01098400076B
:01098500076A
:010986000769
:010987000768
:010988000767
:010989000766
:01098A000765
:01098B000764
:01098C000763
:01098D000762
:01098E000761
:01098F000760
:01099000075F
:01099100075E
:01099200075D
:01099300075C
:01099400075B
:01099500075A
:010996000759
:010997000758
:010998000757
:010999000756
:01099A000755
:01099B000754
:01099C000753
:01099D000752
:01099E000751
:01099F000750
:0109A000074F
:0109A100074E
:0109A200074D
:0109A300074C
:0109A400074B
:0109A500074A
:0109A6000749
:0109A7000748
:0109A8000747
:0109A9000746
:0109AA000745
:0109AB000744
:0109AC000743
:0109AD000742
:0109AE000741
:0109AF000740
:0109B000073F
:0109B100073E
:0109B200073D
:0109B300073C
:0109B400073B
:0109B500073A
:0109B6000739
:0109B7000738
:0109B8000737
:0109B9000736
:0109BA000735
:0109BB000734
:0109BC000733
:0109BD000732
:0109BE000731
:0109BF000730
:0109C000072F
:0109C100072E
:0109C200072D
:0109C300072C
:0109C400072B
:0109C500072A
:0109C6000729
:0109C7000728
:0109C8000727
:0109C9000726
:0109CA000725
:0109CB000724
:0109CC000723
:0109CD000722
:0109CE000721
:0109CF000720
:0109D000071F
:0109D100071E
:0109D200071D
:0109D300071C
:0109D400071B
:0109D500071A
:0109D6000719
:0109D7000718
:0109D8000717
:0109D9000716
:0109DA000715
:0109DB000714
:0109DC000713
:0109DD000712
:0109DE000711
:0109DF000710
:0109E000070F
:0109E100070E
:0109E200070D
:0109E300070C
:0109E400070B
:0109E500070A
:0109E6000709
:0109E7000708
:0109E8000707
:0109E9000706
:0109EA000705
:0109EB000704
:0109EC000703
:0109ED000702
:0109EE000701
:0109EF000700
:0109F00007FF
:0109F10007FE
:0109F20007FD
:0109F30007FC
:0109F40007FB
:0109F50007FA
:0109F60007F9
:0109F70007F8
:0109F80007F7
:0109F90007F6
:0109FA0007F5
:0109FB0007F4
:0109FC0007F3
:0109FD0007F2
:0109FE0007F1
:0109FF0007F0
:010A000007EE
:010A010007ED
:010A020007EC
:010A030007EB
:010A040007EA
:010A050007E9
:010A060007E8
:010A070007E7
:010A080007E6
:010A090007E5
:010A0A0007E4
:010A0B0007E3
:010A0C0007E2
:010A0D0007E1
:010A0E0007E0
:010A0F0007DF
:010A100007DE
:010A110007DD
:010A120007DC
:010A130007DB
:010A140007DA
:010A150007D9
:010A160007D8
:010A170007D7
:010A180007D6
:010A190007D5
:010A1A0007D4
:010A1B0007D3
:010A1C0007D2
:010A1D0007D1
:010A1E0007D0
:010A1F0007CF
:010A200007CE
:010A210007CD
:010A220007CC
:010A230007CB
:010A240007CA
:010A250007C9
:010A260007C8
:010A270007C7
:010A280007C6
:010A290007C5
:010A2A0007C4
:010A2B0007C3
:010A2C0007C2
:010A2D0007C1
:010A2E0007C0
:010A2F0007BF
:010A300007BE
:010A310007BD
:010A320007BC
:010A330007BB
:010A340007BA
:010A350007B9
:010A360007B8
:010A370007B7
:010A380007B6
:010A390007B5
:010A3A0007B4
:010A3B0007B3
:010A3C0007B2
:010A3D0007B1
:010A3E0007B0
:010A3F0007AF
:010A400007AE
:010A410007AD
:010A420007AC
:010A430007AB
:010A440007AA
:010A450007A9
:010A460007A8
:010A470007A7
:010A480007A6
:010A490007A5
:010A4A0007A4
:010A4B0007A3
:010A4C0007A2
:010A4D0007A1
:010A4E0007A0
:010A4F00079F
:010A5000079E
:010A5100079D
:010A5200079C
:010A5300079B
:010A5400079A
:010A55000799
:010A56000798
:010A57000797
:010A58000796
:010A59000795
:010A5A000794
:010A5B000793
:010A5C000792
:010A5D000791
:010A5E000790
:010A5F00078F
:010A6000078E
:010A6100078D
:010A6200078C
:010A6300078B
:010A6400078A
:010A65000789
:010A66000788
:010A67000787
:010A68000786
:010A69000785
:010A6A000784
:010A6B000783
:010A6C000782
:010A6D000781
:010A6E000780
:010A6F00077F
:010A7000077E
:010A7100077D
:010A7200077C
:010A7300077B
:010A7400077A
:010A75000779
:010A76000778
:010A77000777
:010A78000776
:010A79000775
:010A7A000774
:010A7B000773
:010A7C000772
:010A7D000771
:010A7E000770
:010A7F00076F
:010A8000076E
:010A8100076D
:010A8200076C
:010A8300076B
:010A8400076A
:010A85000769
:010A86000768
:010A87000767
:010A88000766
:010A89000765
:010A8A000764
:010A8B000763
:010A8C000762
:010A8D000761
:010A8E000760
:010A8F00075F
:010A9000075E
:010A9100075D
:010A9200075C
:010A9300075B
:010A9400075A
:010A95000759
:010A96000758
:010A97000757
:010A98000756
:010A99000755
:010A9A000754
:010A9B000753
:010A9C000752
:010A9D000751
:010A9E000750
:010A9F00074F
:010AA000074E
:010AA100074D
:010AA200074C
:010AA300074B
:010AA400074A
:010AA5000749
:010AA6000748
:010AA7000747
:010AA8000746
:010AA9000745
:010AAA000744
:010AAB000743
:010AAC000742
:010AAD000741
:010AAE000740
:010AAF00073F
:010AB000073E
:010AB100073D
:010AB200073C
:010AB300073B
:010AB400073A
:010AB5000739
:010AB6000738
:010AB7000737
:010AB8000736
:010AB9000735
:010ABA000734
:010ABB000733
:010ABC000732
:010ABD000731
:010ABE000730
:010ABF00072F
:010AC000072E
:010AC100072D
:010AC200072C
:010AC300072B
:010AC400072A
:010AC5000729
:010AC6000728
:010AC7000727
:010AC8000726
:010AC9000725
:010ACA000724
:010ACB000723
:010ACC000722
:010ACD000721
:010ACE000720
:010ACF00071F
:010AD000071E
:010AD100071D
:010AD200071C
:010AD300071B
:010AD400071A
:010AD5000719
:010AD6000718
:010AD7000717
:010AD8000716
:010AD9000715
:010ADA000714
:010ADB000713
:010ADC000712
:010ADD000711
:010ADE000710
:010ADF00070F
:010AE000070E
:010AE100070D
:010AE200070C
:010AE300070B
:010AE400070A
:010AE5000709
:010AE6000708
:010AE7000707
:010AE8000706
:010AE9000705
:010AEA000704
:010AEB000703
:010AEC000702
:010AED000701
:010AEE000700
:010AEF0007FF
:010AF00007FE
:010AF10007FD
:010AF20007FC
:010AF30007FB
:010AF40007FA
:010AF50007F9
:010AF60007F8
:010AF70007F7
:010AF80007F6
:010AF90007F5
:010AFA0007F4
:010AFB0007F3
:010AFC0007F2
:010AFD0007F1
:010AFE0007F0
:010AFF0007EF
:010B000007ED
:010B010007EC
:010B020007EB
:010B030007EA
:010B040007E9
:010B050007E8
:010B060007E7
:010B070007E6
:010B080007E5
:010B090007E4
:010B0A0007E3
:010B0B0007E2
:010B0C0007E1
:010B0D0007E0
:010B0E0007DF
:010B0F0007DE
:010B100007DD
:010B110007DC
:010B120007DB
:010B130007DA
:010B140007D9
:010B150007D8
:010B160007D7
:010B170007D6
:010B180007D5
:010B190007D4
:010B1A0007D3
:010B1B0007D2
:010B1C0007D1
:010B1D0007D0
:010B1E0007CF
:010B1F0007CE
:010B200007CD
:010B210007CC
:010B220007CB
:010B230007CA
:010B240007C9
:010B250007C8
:010B260007C7
:010B270007C6
:010B280007C5
:010B290007C4
:010B2A0007C3
:010B2B0007C2
:010B2C0007C1
:010B2D0007C0
:010B2E0007BF
:010B2F0007BE
:010B300007BD
:010B310007BC
:010B320007BB
:010B330007BA
:010B340007B9
:010B350007B8
:010B360007B7
:010B370007B6
:010B380007B5
:010B390007B4
:010B3A0007B3
:010B3B0007B2
:010B3C0007B1
:010B3D0007B0
:010B3E0007AF
:010B3F0007AE
:010B400007AD
:010B410007AC
:010B420007AB
:010B430007AA
:010B440007A9
:010B450007A8
:010B460007A7
:010B470007A6
:010B480007A5
:010B490007A4
:010B4A0007A3
:010B4B0007A2
:010B4C0007A1
:010B4D0007A0
:010B4E00079F
:010B4F00079E
:010B5000079D
:010B5100079C
:010B5200079B
:010B5300079A
:010B54000799
:010B55000798
:010B56000797
:010B57000796
:010B58000795
:010B59000794
:010B5A000793
:010B5B000792
:010B5C000791
:010B5D000790
:010B5E00078F
:010B5F00078E
:010B6000078D
:010B6100078C
:010B6200078B
:010B6300078A
:010B64000789
:010B65000788
:010B66000787
:010B67000786
:010B68000785
:010B69000784
:010B6A000783
:010B6B000782
:010B6C000781
:010B6D000780
:010B6E00077F
:010B6F00077E
:010B7000077D
:010B7100077C
:010B7200077B
:010B7300077A
:010B74000779
:010B75000778
:010B76000777
:010B77000776
:010B78000775
:010B79000774
:010B7A000773
:010B7B000772
:010B7C000771
:010B7D000770
:010B7E00076F
:010B7F00076E
:010B8000076D
:010B8100076C
:010B8200076B
:010B8300076A
:010B84000769
:010B85000768
:010B86000767
:010B87000766
:010B88000765
:010B89000764
:010B8A000763
:010B8B000762
:010B8C000761
:010B8D000760
:010B8E00075F
:010B8F00075E
:010B9000075D
:010B9100075C
:010B9200075B
:010B9300075A
:010B94000759
:010B95000758
:010B96000757
:010B97000756
:010B98000755
:010B99000754
:010B9A000753
:010B9B000752
:010B9C000751
:010B9D000750
:010B9E00074F
:010B9F00074E
:010BA000074D
:010BA100074C
:010BA200074B
:010BA300074A
:010BA4000749
:010BA5000748
:010BA6000747
:010BA7000746
:010BA8000745
:010BA9000744
:010BAA000743
:010BAB000742
:010BAC000741
:010BAD000740
:010BAE00073F
:010BAF00073E
:010BB000073D
:010BB100073C
:010BB200073B
:010BB300073A
:010BB4000739
:010BB5000738
:010BB6000737
:010BB7000736
:010BB8000735
:010BB9000734
:010BBA000733
:010BBB000732
:010BBC000731
:010BBD000730
:010BBE00072F
:010BBF00072E
:010BC000072D
:010BC100072C
:010BC200072B
:010BC300072A
:010BC4000729
:010BC5000728
:010BC6000727
:010BC7000726
:010BC8000725
:010BC9000724
:010BCA000723
:010BCB000722
:010BCC000721
:010BCD000720
:010BCE00071F
:010BCF00071E
:010BD000071D
:010BD100071C
:010BD200071B
:010BD300071A
:010BD4000719
:010BD5000718
:010BD6000717
:010BD7000716
:010BD8000715
:010BD9000714
:010BDA000713
:010BDB000712
:010BDC000711
:010BDD000710
:010BDE00070F
:010BDF00070E
:010BE000070D
:010BE100070C
:010BE200070B
:010BE300070A
:010BE4000709
:010BE5000708
:010BE6000707
:010BE7000706
:010BE8000705
:010BE9000704
:010BEA000703
:010BEB000702
:010BEC000701
:010BED000700
:010BEE0007FF
:010BEF0007FE
:010BF00007FD
:010BF10007FC
:010BF20007FB
:010BF30007FA
:010BF40007F9
:010BF50007F8
:010BF60007F7
:010BF70007F6
:010BF80007F5
:010BF90007F4
:010BFA0007F3
:010BFB0007F2
:010BFC0007F1
:010BFD0007F0
:010BFE0007EF
:010BFF0007EE
:010C000007EC
:010C010007EB
:010C020007EA
:010C030007E9
:010C040007E8
:010C050007E7
:010C060007E6
:010C070007E5
:010C080007E4
:010C090007E3
:010C0A0007E2
:010C0B0007E1
:010C0C0007E0
:010C0D0007DF
:010C0E0007DE
:010C0F0007DD
:010C100007DC
:010C110007DB
:010C120007DA
:010C130007D9
:010C140007D8
:010C150007D7
:010C160007D6
:010C170007D5
:010C180007D4
:010C190007D3
:010C1A0007D2
:010C1B0007D1
:010C1C0007D0
:010C1D0007CF
:010C1E0007CE
:010C1F0007CD
:010C200007CC
:010C210007CB
:010C220007CA
:010C230007C9
:010C240007C8
:010C250007C7
:010C260007C6
:010C270007C5
:010C280007C4
:010C290007C3
:010C2A0007C2
:010C2B0007C1
:010C2C0007C0
:010C2D0007BF
:010C2E0007BE
:010C2F0007BD
:010C300007BC
:010C310007BB
:010C320007BA
:010C330007B9
:010C340007B8
:010C350007B7
:010C360007B6
:010C370007B5
:010C380007B4
:010C390007B3
:010C3A0007B2
:010C3B0007B1
:010C3C0007B0
:010C3D0007AF
:010C3E0007AE
:010C3F0007AD
:010C400007AC
:010C410007AB
:010C420007AA
:010C430007A9
:010C440007A8
:010C450007A7
:010C460007A6
:010C470007A5
:010C480007A4
:010C490007A3
:010C4A0007A2
:010C4B0007A1
:010C4C0007A0
:010C4D00079F
:010C4E00079E
:010C4F00079D
:010C5000079C
:010C5100079B
:010C5200079A
:010C53000799
:010C54000798
:010C55000797
:010C56000796
:010C57000795
:010C58000794
:010C59000793
:010C5A000792
:010C5B000791
:010C5C000790
:010C5D00078F
:010C5E00078E
:010C5F00078D
:010C6000078C
:010C6100078B
:010C6200078A
:010C63000789
:010C64000788
:010C65000787
:010C66000786
:010C67000785
:010C68000784
:010C69000783
:010C6A000782
:010C6B000781
:010C6C000780
:010C6D00077F
:010C6E00077E
:010C6F00077D
:010C7000077C
:010C7100077B
:010C7200077A
:010C73000779
:010C74000778
:010C75000777
:010C76000776
:010C77000775
:010C78000774
:010C79000773
:010C7A000772
:010C7B000771
:010C7C000770
:010C7D00076F
:010C7E00076E
:010C7F00076D
:010C8000076C
:010C8100076B
:010C8200076A
:010C83000769
:010C84000768
:010C85000767
:010C86000766
:010C87000765
:010C88000764
:010C89000763
:010C8A000762
:010C8B000761
:010C8C000760
:010C8D00075F
:010C8E00075E
:010C8F00075D
:010C9000075C
:010C9100075B
:010C9200075A
:010C93000759
:010C94000758
:010C95000757
:010C96000756
:010C97000755
:010C98000754
:010C99000753
:010C9A000752
:010C9B000751
:010C9C000750
:010C9D00074F
:010C9E00074E
:010C9F00074D
:010CA000074C
:010CA100074B
:010CA200074A
:010CA3000749
:010CA4000748
:010CA5000747
:010CA6000746
:010CA7000745
:010CA8000744
:010CA9000743
:010CAA000742
:010CAB000741
:010CAC000740
:010CAD00073F
:010CAE00073E
:010CAF00073D
:010CB000073C
:010CB100073B
:010CB200073A
:010CB3000739
:010CB4000738
:010CB5000737
:010CB6000736
:010CB7000735
:010CB8000734
:010CB9000733
:010CBA000732
:010CBB000731
:010CBC000730
:010CBD00072F
:010CBE00072E
:010CBF00072D
:010CC000072C
:010CC100072B
:010CC200072A
:010CC3000729
:010CC4000728
:010CC5000727
:010CC6000726
:010CC7000725
:010CC8000724
:010CC9000723
:010CCA000722
:010CCB000721
:010CCC000720
:010CCD00071F
:010CCE00071E
:010CCF00071D
:010CD000071C
:010CD100071B
:010CD200071A
:010CD3000719
:010CD4000718
:010CD5000717
:010CD6000716
:010CD7000715
:010CD8000714
:010CD9000713
:010CDA000712
:010CDB000711
:010CDC000710
:010CDD00070F
:010CDE00070E
:010CDF00070D
:010CE000070C
:010CE100070B
:010CE200070A
:010CE3000709
:010CE4000708
:010CE5000707
:010CE6000706
:010CE7000705
:010CE8000704
:010CE9000703
:010CEA000702
:010CEB000701
:010CEC000700
:010CED0007FF
:010CEE0007FE
:010CEF0007FD
:010CF00007FC
:010CF10007FB
:010CF20007FA
:010CF30007F9
:010CF40007F8
:010CF50007F7
:010CF60007F6
:010CF70007F5
:010CF80007F4
:010CF90007F3
:010CFA0007F2
:010CFB0007F1
:010CFC0007F0
:010CFD0007EF
:010CFE0007EE
:010CFF0007ED
:010D000007EB
:010D010007EA
:010D020007E9
:010D030007E8
:010D040007E7
:010D050007E6
:010D060007E5
:010D070007E4
:010D080007E3
:010D090007E2
:010D0A0007E1
:010D0B0007E0
:010D0C0007DF
:010D0D0007DE
:010D0E0007DD
:010D0F0007DC
:010D100007DB
:010D110007DA
:010D120007D9
:010D130007D8
:010D140007D7
:010D150007D6
:010D160007D5
:010D170007D4
:010D180007D3
:010D190007D2
:010D1A0007D1
:010D1B0007D0
:010D1C0007CF
:010D1D0007CE
:010D1E0007CD
:010D1F0007CC
:010D200007CB
:010D210007CA
:010D220007C9
:010D230007C8
:010D240007C7
:010D250007C6
:010D260007C5
:010D270007C4
:010D280007C3
:010D290007C2
:010D2A0007C1
:010D2B0007C0
:010D2C0007BF
:010D2D0007BE
:010D2E0007BD
:010D2F0007BC
:010D300007BB
:010D310007BA
:010D320007B9
:010D330007B8
:010D340007B7
:010D350007B6
:010D360007B5
:010D370007B4
:010D380007B3
:010D390007B2
:010D3A0007B1
:010D3B0007B0
:010D3C0007AF
:010D3D0007AE
:010D3E0007AD
:010D3F0007AC
:010D400007AB
:010D410007AA
:010D420007A9
:010D430007A8
:010D440007A7
:010D450007A6
:010D460007A5
:010D470007A4
:010D480007A3
:010D490007A2
:010D4A0007A1
:010D4B0007A0
:010D4C00079F
:010D4D00079E
:010D4E00079D
:010D4F00079C
:010D5000079B
:010D5100079A
:010D52000799
:010D53000798
:010D54000797
:010D55000796
:010D56000795
:010D57000794
:010D58000793
:010D59000792
:010D5A000791
:010D5B000790
:010D5C00078F
:010D5D00078E
:010D5E00078D
:010D5F00078C
:010D6000078B
:010D6100078A
:010D62000789
:010D63000788
:010D64000787
:010D65000786
:010D66000785
:010D67000784
:010D68000783
:010D69000782
:010D6A000781
:010D6B000780
:010D6C00077F
:010D6D00077E
:010D6E00077D
:010D6F00077C
:010D7000077B
:010D7100077A
:010D72000779
:010D73000778
:010D74000777
:010D75000776
:010D76000775
:010D77000774
:010D78000773
:010D79000772
:010D7A000771
:010D7B000770
:010D7C00076F
:010D7D00076E
:010D7E00076D
:010D7F00076C
:010D8000076B
:010D8100076A
:010D82000769
:010D83000768
:010D84000767
:010D85000766
:010D86000765
:010D87000764
:010D88000763
:010D89000762
:010D8A000761
:010D8B000760
:010D8C00075F
:010D8D00075E
:010D8E00075D
:010D8F00075C
:010D9000075B
:010D9100075A
:010D92000759
:010D93000758
:010D94000757
:010D95000756
:010D96000755
:010D97000754
:010D98000753
:010D99000752
:010D9A000751
:010D9B000750
:010D9C00074F
:010D9D00074E
:010D9E00074D
:010D9F00074C
:010DA000074B
:010DA100074A
:010DA2000749
:010DA3000748
:010DA4000747
:010DA5000746
:010DA6000745
:010DA7000744
:010DA8000743
:010DA9000742
:010DAA000741
:010DAB000740
:010DAC00073F
:010DAD00073E
:010DAE00073D
:010DAF00073C
:010DB000073B
:010DB100073A
:010DB2000739
:010DB3000738
:010DB4000737
:010DB5000736
:010DB6000735
:010DB7000734
:010DB8000733
:010DB9000732
:010DBA000731
:010DBB000730
:010DBC00072F
:010DBD00072E
:010DBE00072D
:010DBF00072C
:010DC000072B
:010DC100072A
:010DC2000729
:010DC3000728
:010DC4000727
:010DC5000726
:010DC6000725
:010DC7000724
:010DC8000723
:010DC9000722
:010DCA000721
:010DCB000720
:010DCC00071F
:010DCD00071E
:010DCE00071D
:010DCF00071C
:010DD000071B
:010DD100071A
:010DD2000719
:010DD3000718
:010DD4000717
:010DD5000716
:010DD6000715
:010DD7000714
:010DD8000713
:010DD9000712
:010DDA000711
:010DDB000710
:010DDC00070F
:010DDD00070E
:010DDE00070D
:010DDF00070C
:010DE000070B
:010DE100070A
:010DE2000709
:010DE3000708
:010DE4000707
:010DE5000706
:010DE6000705
:010DE7000704
:010DE8000703
:010DE9000702
:010DEA000701
:010DEB000700
:010DEC0007FF
:010DED0007FE
:010DEE0007FD
:010DEF0007FC
:010DF00007FB
:010DF10007FA
:010DF20007F9
:010DF30007F8
:010DF40007F7
:010DF50007F6
:010DF60007F5
:010DF70007F4
:010DF80007F3
:010DF90007F2
:010DFA0007F1
:010DFB0007F0
:010DFC0007EF
:010DFD0007EE
:010DFE0007ED
:010DFF0007EC
:010E000007EA
:010E010007E9
:010E020007E8
:010E030007E7
:010E040007E6
:010E050007E5
:010E060007E4
:010E070007E3
:010E080007E2
:010E090007E1
:010E0A0007E0
:010E0B0007DF
:010E0C0007DE
:010E0D0007DD
:010E0E0007DC
:010E0F0007DB
:010E100007DA
:010E110007D9
:010E120007D8
:010E130007D7
:010E140007D6
:010E150007D5
:010E160007D4
:010E170007D3
:010E180007D2
:010E190007D1
:010E1A0007D0
:010E1B0007CF
:010E1C0007CE
:010E1D0007CD
:010E1E0007CC
:010E1F0007CB
:010E200007CA
:010E210007C9
:010E220007C8
:010E230007C7
:010E240007C6
:010E250007C5
:010E260007C4
:010E270007C3
:010E280007C2
:010E290007C1
:010E2A0007C0
:010E2B0007BF
:010E2C0007BE
:010E2D0007BD
:010E2E0007BC
:010E2F0007BB
:010E300007BA
:010E310007B9
:010E320007B8
:010E330007B7
:010E340007B6
:010E350007B5
:010E360007B4
:010E370007B3
:010E380007B2
:010E390007B1
:010E3A0007B0
:010E3B0007AF
:010E3C0007AE
:010E3D0007AD
:010E3E0007AC
:010E3F0007AB
:010E400007AA
:010E410007A9
:010E420007A8
:010E430007A7
:010E440007A6
:010E450007A5
:010E460007A4
:010E470007A3
:010E480007A2
:010E490007A1
:010E4A0007A0
:010E4B00079F
:010E4C00079E
:010E4D00079D
:010E4E00079C
:010E4F00079B
:010E5000079A
:010E51000799
:010E52000798
:010E53000797
:010E54000796
:010E55000795
:010E56000794
:010E57000793
:010E58000792
:010E59000791
:010E5A000790
:010E5B00078F
:010E5C00078E
:010E5D00078D
:010E5E00078C
:010E5F00078B
:010E6000078A
:010E61000789
:010E62000788
:010E63000787
:010E64000786
:010E65000785
:010E66000784
:010E67000783
:010E68000782
:010E69000781
:010E6A000780
:010E6B00077F
:010E6C00077E
:010E6D00077D
:010E6E00077C
:010E6F00077B
:010E7000077A
:010E71000779
:010E72000778
:010E73000777
:010E74000776
:010E75000775
:010E76000774
:010E77000773
:010E78000772
:010E79000771
:010E7A000770
:010E7B00076F
:010E7C00076E
:010E7D00076D
:010E7E00076C
:010E7F00076B
:010E8000076A
:010E81000769
:010E82000768
:010E83000767
:010E84000766
:010E85000765
:010E86000764
:010E87000763
:010E88000762
:010E89000761
:010E8A000760
:010E8B00075F
:010E8C00075E
:010E8D00075D
:010E8E00075C
:010E8F00075B
:010E9000075A
:010E91000759
:010E92000758
:010E93000757
:010E94000756
:010E95000755
:010E96000754
:010E97000753
:010E98000752
:010E99000751
:010E9A000750
:010E9B00074F
:010E9C00074E
:010E9D00074D
:010E9E00074C
:010E9F00074B
:010EA000074A
:010EA1000749
:010EA2000748
:010EA3000747
:010EA4000746
:010EA5000745
:010EA6000744
:010EA7000743
:010EA8000742
:010EA9000741
:010EAA000740
:010EAB00073F
:010EAC00073E
:010EAD00073D
:010EAE00073C
:010EAF00073B
:010EB000073A
:010EB1000739
:010EB2000738
:010EB3000737
:010EB4000736
:010EB5000735
:010EB6000734
:010EB7000733
:010EB8000732
:010EB9000731
:010EBA000730
:010EBB00072F
:010EBC00072E
:010EBD00072D
:010EBE00072C
:010EBF00072B
:010EC000072A
:010EC1000729
:010EC2000728
:010EC3000727
:010EC4000726
:010EC5000725
:010EC6000724
:010EC7000723
:010EC8000722
:010EC9000721
:010ECA000720
:010ECB00071F
:010ECC00071E
:010ECD00071D
:010ECE00071C
:010ECF00071B
:010ED000071A
:010ED1000719
:010ED2000718
:010ED3000717
:010ED4000716
:010ED5000715
:010ED6000714
:010ED7000713
:010ED8000712
:010ED9000711
:010EDA000710
:010EDB00070F
:010EDC00070E
:010EDD00070D
:010EDE00070C
:010EDF00070B
:010EE000070A
:010EE1000709
:010EE2000708
:010EE3000707
:010EE4000706
:010EE5000705
:010EE6000704
:010EE7000703
:010EE8000702
:010EE9000701
:010EEA000700
:010EEB0007FF
:010EEC0007FE
:010EED0007FD
:010EEE0007FC
:010EEF0007FB
:010EF00007FA
:010EF10007F9
:010EF20007F8
:010EF30007F7
:010EF40007F6
:010EF50007F5
:010EF60007F4
:010EF70007F3
:010EF80007F2
:010EF90007F1
:010EFA0007F0
:010EFB0007EF
:010EFC0007EE
:010EFD0007ED
:010EFE0007EC
:010EFF0007EB
:010F000007E9
:010F010007E8
:010F020007E7
:010F030007E6
:010F040007E5
:010F050007E4
:010F060007E3
:010F070007E2
:010F080007E1
:010F090007E0
:010F0A0007DF
:010F0B0007DE
:010F0C0007DD
:010F0D0007DC
:010F0E0007DB
:010F0F0007DA
:010F100007D9
:010F110007D8
:010F120007D7
:010F130007D6
:010F140007D5
:010F150007D4
:010F160007D3
:010F170007D2
:010F180007D1
:010F190007D0
:010F1A0007CF
:010F1B0007CE
:010F1C0007CD
:010F1D0007CC
:010F1E0007CB
:010F1F0007CA
:010F200007C9
:010F210007C8
:010F220007C7
:010F230007C6
:010F240007C5
:010F250007C4
:010F260007C3
:010F270007C2
:010F280007C1
:010F290007C0
:010F2A0007BF
:010F2B0007BE
:010F2C0007BD
:010F2D0007BC
:010F2E0007BB
:010F2F0007BA
:010F300007B9
:010F310007B8
:010F320007B7
:010F330007B6
:010F340007B5
:010F350007B4
:010F360007B3
:010F370007B2
:010F380007B1
:010F390007B0
:010F3A0007AF
:010F3B0007AE
:010F3C0007AD
:010F3D0007AC
:010F3E0007AB
:010F3F0007AA
:010F400007A9
:010F410007A8
:010F420007A7
:010F430007A6
:010F440007A5
:010F450007A4
:010F460007A3
:010F470007A2
:010F480007A1
:010F490007A0
:010F4A00079F
:010F4B00079E
:010F4C00079D
:010F4D00079C
:010F4E00079B
:010F4F00079A
:010F50000799
:010F51000798
:010F52000797
:010F53000796
:010F54000795
:010F55000794
:010F56000793
:010F57000792
:010F58000791
:010F59000790
:010F5A00078F
:010F5B00078E
:010F5C00078D
:010F5D00078C
:010F5E00078B
:010F5F00078A
:010F60000789
:010F61000788
:010F62000787
:010F63000786
:010F64000785
:010F65000784
:010F66000783
:010F67000782
:010F68000781
:010F69000780
:010F6A00077F
:010F6B00077E
:010F6C00077D
:010F6D00077C
:010F6E00077B
:010F6F00077A
:010F70000779
:010F71000778
:010F72000777
:010F73000776
:010F74000775
:010F75000774
:010F76000773
:010F77000772
:010F78000771
:010F79000770
:010F7A00076F
:010F7B00076E
:010F7C00076D
:010F7D00076C
:010F7E00076B
:010F7F00076A
:010F80000769
:010F81000768
:010F82000767
:010F83000766
:010F84000765
:010F85000764
:010F86000763
:010F87000762
:010F88000761
:010F89000760
:010F8A00075F
:010F8B00075E
:010F8C00075D
:010F8D00075C
:010F8E00075B
:010F8F00075A
:010F90000759
:010F91000758
:010F92000757
:010F93000756
:010F94000755
:010F95000754
:010F96000753
:010F97000752
:010F98000751
:010F99000750
:010F9A00074F
:010F9B00074E
:010F9C00074D
:010F9D00074C
:010F9E00074B
:010F9F00074A
:010FA0000749
:010FA1000748
:010FA2000747
:010FA3000746
:010FA4000745
:010FA5000744
:010FA6000743
:010FA7000742
:010FA8000741
:010FA9000740
:010FAA00073F
:010FAB00073E
:010FAC00073D
:010FAD00073C
:010FAE00073B
:010FAF00073A
:010FB0000739
:010FB1000738
:010FB2000737
:010FB3000736
:010FB4000735
:010FB5000734
:010FB6000733
:010FB7000732
:010FB8000731
:010FB9000730
:010FBA00072F
:010FBB00072E
:010FBC00072D
:010FBD00072C
:010FBE00072B
:010FBF00072A
:010FC0000729
:010FC1000728
:010FC2000727
:010FC3000726
:010FC4000725
:010FC5000724
:010FC6000723
:010FC7000722
:010FC8000721
:010FC9000720
:010FCA00071F
:010FCB00071E
:010FCC00071D
:010FCD00071C
:010FCE00071B
:010FCF00071A
:010FD0000719
:010FD1000718
:010FD2000717
:010FD3000716
:010FD4000715
:010FD5000714
:010FD6000713
:010FD7000712
:010FD8000711
:010FD9000710
:010FDA00070F
:010FDB00070E
:010FDC00070D
:010FDD00070C
:010FDE00070B
:010FDF00070A
:010FE0000709
:010FE1000708
:010FE2000707
:010FE3000706
:010FE4000705
:010FE5000704
:010FE6000703
:010FE7000702
:010FE8000701
:010FE9000700
:010FEA0007FF
:010FEB0007FE
:010FEC0007FD
:010FED0007FC
:010FEE0007FB
:010FEF0007FA
:010FF00007F9
:010FF10007F8
:010FF20007F7
:010FF30007F6
:010FF40007F5
:010FF50007F4
:010FF60007F3
:010FF70007F2
:010FF80007F1
:010FF90007F0
:010FFA0007EF
:010FFB0007EE
:010FFC0007ED
:010FFD0007EC
:010FFE0007EB
:010FFF0007EA
:0110000007E8
:0110010007E7
:0110020007E6
:0110030007E5
:0110040007E4
:0110050007E3
:0110060007E2
:0110070007E1
:0110080007E0
:0110090007DF
:01100A0007DE
:01100B0007DD
:01100C0007DC
:01100D0007DB
:01100E0007DA
:01100F0007D9
:0110100007D8
:0110110007D7
:0110120007D6
:0110130007D5
:0110140007D4
:0110150007D3
:0110160007D2
:0110170007D1
:0110180007D0
:0110190007CF
:01101A0007CE
:01101B0007CD
:01101C0007CC
:01101D0007CB
:01101E0007CA
:01101F0007C9
:0110200007C8
:0110210007C7
:0110220007C6
:0110230007C5
:0110240007C4
:0110250007C3
:0110260007C2
:0110270007C1
:0110280007C0
:0110290007BF
:01102A0007BE
:01102B0007BD
:01102C0007BC
:01102D0007BB
:01102E0007BA
:01102F0007B9
:0110300007B8
:0110310007B7
:0110320007B6
:0110330007B5
:0110340007B4
:0110350007B3
:0110360007B2
:0110370007B1
:0110380007B0
:0110390007AF
:01103A0007AE
:01103B0007AD
:01103C0007AC
:01103D0007AB
:01103E0007AA
:01103F0007A9
:0110400007A8
:0110410007A7
:0110420007A6
:0110430007A5
:0110440007A4
:0110450007A3
:0110460007A2
:0110470007A1
:0110480007A0
:01104900079F
:01104A00079E
:01104B00079D
:01104C00079C
:01104D00079B
:01104E00079A
:01104F000799
:011050000798
:011051000797
:011052000796
:011053000795
:011054000794
:011055000793
:011056000792
:011057000791
:011058000790
:01105900078F
:01105A00078E
:01105B00078D
:01105C00078C
:01105D00078B
:01105E00078A
:01105F000789
:011060000788
:011061000787
:011062000786
:011063000785
:011064000784
:011065000783
:011066000782
:011067000781
:011068000780
:01106900077F
:01106A00077E
:01106B00077D
:01106C00077C
:01106D00077B
:01106E00077A
:01106F000779
:011070000778
:011071000777
:011072000776
:011073000775
:011074000774
:011075000773
:011076000772
:011077000771
:011078000770
:01107900076F
:01107A00076E
:01107B00076D
:01107C00076C
:01107D00076B
:01107E00076A
:01107F000769
:011080000768
:011081000767
:011082000766
:011083000765
:011084000764
:011085000763
:011086000762
:011087000761
:011088000760
:01108900075F
:01108A00075E
:01108B00075D
:01108C00075C
:01108D00075B
:01108E00075A
:01108F000759
:011090000758
:011091000757
:011092000756
:011093000755
:011094000754
:011095000753
:011096000752
:011097000751
:011098000750
:01109900074F
:01109A00074E
:01109B00074D
:01109C00074C
:01109D00074B
:01109E00074A
:01109F000749
:0110A0000748
:0110A1000747
:0110A2000746
:0110A3000745
:0110A4000744
:0110A5000743
:0110A6000742
:0110A7000741
:0110A8000740
:0110A900073F
:0110AA00073E
:0110AB00073D
:0110AC00073C
:0110AD00073B
:0110AE00073A
:0110AF000739
:0110B0000738
:0110B1000737
:0110B2000736
:0110B3000735
:0110B4000734
:0110B5000733
:0110B6000732
:0110B7000731
:0110B8000730
:0110B900072F
:0110BA00072E
:0110BB00072D
:0110BC00072C
:0110BD00072B
:0110BE00072A
:0110BF000729
:0110C0000728
:0110C1000727
:0110C2000726
:0110C3000725
:0110C4000724
:0110C5000723
:0110C6000722
:0110C7000721
:0110C8000720
:0110C900071F
:0110CA00071E
:0110CB00071D
:0110CC00071C
:0110CD00071B
:0110CE00071A
:0110CF000719
:0110D0000718
:0110D1000717
:0110D2000716
:0110D3000715
:0110D4000714
:0110D5000713
:0110D6000712
:0110D7000711
:0110D8000710
:0110D900070F
:0110DA00070E
:0110DB00070D
:0110DC00070C
:0110DD00070B
:0110DE00070A
:0110DF000709
:0110E0000708
:0110E1000707
:0110E2000706
:0110E3000705
:0110E4000704
:0110E5000703
:0110E6000702
:0110E7000701
:0110E8000700
:0110E90007FF
:0110EA0007FE
:0110EB0007FD
:0110EC0007FC
:0110ED0007FB
:0110EE0007FA
:0110EF0007F9
:0110F00007F8
:0110F10007F7
:0110F20007F6
:0110F30007F5
:0110F40007F4
:0110F50007F3
:0110F60007F2
:0110F70007F1
:0110F80007F0
:0110F90007EF
:0110FA0007EE
:0110FB0007ED
:0110FC0007EC
:0110FD0007EB
:0110FE0007EA
:0110FF0007E9
:0111000007E7
:0111010007E6
:0111020007E5
:0111030007E4
:0111040007E3
:0111050007E2
:0111060007E1
:0111070007E0
:0111080007DF
:0111090007DE
:01110A0007DD
:01110B0007DC
:01110C0007DB
:01110D0007DA
:01110E0007D9
:01110F0007D8
:0111100007D7
:0111110007D6
:0111120007D5
:0111130007D4
:0111140007D3
:0111150007D2
:0111160007D1
:0111170007D0
:0111180007CF
:0111190007CE
:01111A0007CD
:01111B0007CC
:01111C0007CB
:01111D0007CA
:01111E0007C9
:01111F0007C8
:0111200007C7
:0111210007C6
:0111220007C5
:0111230007C4
:0111240007C3
:0111250007C2
:0111260007C1
:0111270007C0
:0111280007BF
:0111290007BE
:01112A0007BD
:01112B0007BC
:01112C0007BB
:01112D0007BA
:01112E0007B9
:01112F0007B8
:0111300007B7
:0111310007B6
:0111320007B5
:0111330007B4
:0111340007B3
:0111350007B2
:0111360007B1
:0111370007B0
:0111380007AF
:0111390007AE
:01113A0007AD
:01113B0007AC
:01113C0007AB
:01113D0007AA
:01113E0007A9
:01113F0007A8
:0111400007A7
:0111410007A6
:0111420007A5
:0111430007A4
:0111440007A3
:0111450007A2
:0111460007A1
:0111470007A0
:01114800079F
:01114900079E
:01114A00079D
:01114B00079C
:01114C00079B
:01114D00079A
:01114E000799
:01114F000798
:011150000797
:011151000796
:011152000795
:011153000794
:011154000793
:011155000792
:011156000791
:011157000790
:01115800078F
:01115900078E
:01115A00078D
:01115B00078C
:01115C00078B
:01115D00078A
:01115E000789
:01115F000788
:011160000787
:011161000786
:011162000785
:011163000784
:011164000783
:011165000782
:011166000781
:011167000780
:01116800077F
:01116900077E
:01116A00077D
:01116B00077C
:01116C00077B
:01116D00077A
:01116E000779
:01116F000778
:011170000777
:011171000776
:011172000775
:011173000774
:011174000773
:011175000772
:011176000771
:011177000770
:01117800076F
:01117900076E
:01117A00076D
:01117B00076C
:01117C00076B
:01117D00076A
:01117E000769
:01117F000768
:011180000767
:011181000766
:011182000765
:011183000764
:011184000763
:011185000762
:011186000761
:011187000760
:01118800075F
:01118900075E
:01118A00075D
:01118B00075C
:01118C00075B
:01118D00075A
:01118E000759
:01118F000758
:011190000757
:011191000756
:011192000755
:011193000754
:011194000753
:011195000752
:011196000751
:011197000750
:01119800074F
:01119900074E
:01119A00074D
:01119B00074C
:01119C00074B
:01119D00074A
:01119E000749
:01119F000748
:0111A0000747
:0111A1000746
:0111A2000745
:0111A3000744
:0111A4000743
:0111A5000742
:0111A6000741
:0111A7000740
:0111A800073F
:0111A900073E
:0111AA00073D
:0111AB00073C
:0111AC00073B
:0111AD00073A
:0111AE000739
:0111AF000738
:0111B0000737
:0111B1000736
:0111B2000735
:0111B3000734
:0111B4000733
:0111B5000732
:0111B6000731
:0111B7000730
:0111B800072F
:0111B900072E
:0111BA00072D
:0111BB00072C
:0111BC00072B
:0111BD00072A
:0111BE000729
:0111BF000728
:0111C0000727
:0111C1000726
:0111C2000725
:0111C3000724
:0111C4000723
:0111C5000722
:0111C6000721
:0111C7000720
:0111C800071F
:0111C900071E
:0111CA00071D
:0111CB00071C
:0111CC00071B
:0111CD00071A
:0111CE000719
:0111CF000718
:0111D0000717
:0111D1000716
:0111D2000715
:0111D3000714
:0111D4000713
:0111D5000712
:0111D6000711
:0111D7000710
:0111D800070F
:0111D900070E
:0111DA00070D
